{
  "_format": "hh-sol-artifact-1",
  "contractName": "ThoughtsAndPrayers",
  "sourceName": "contracts/ThoughtsAndPrayers.sol",
  "abi": [
    {
      "inputs": [],
      "stateMutability": "nonpayable",
      "type": "constructor"
    },
    {
      "anonymous": false,
      "inputs": [
        {
          "indexed": true,
          "internalType": "address",
          "name": "owner",
          "type": "address"
        },
        {
          "indexed": true,
          "internalType": "address",
          "name": "spender",
          "type": "address"
        },
        {
          "indexed": false,
          "internalType": "uint256",
          "name": "value",
          "type": "uint256"
        }
      ],
      "name": "Approval",
      "type": "event"
    },
    {
      "anonymous": false,
      "inputs": [
        {
          "indexed": true,
          "internalType": "address",
          "name": "previousOwner",
          "type": "address"
        },
        {
          "indexed": true,
          "internalType": "address",
          "name": "newOwner",
          "type": "address"
        }
      ],
      "name": "OwnershipTransferred",
      "type": "event"
    },
    {
      "anonymous": false,
      "inputs": [
        {
          "indexed": false,
          "internalType": "address",
          "name": "account",
          "type": "address"
        }
      ],
      "name": "Paused",
      "type": "event"
    },
    {
      "anonymous": false,
      "inputs": [
        {
          "indexed": true,
          "internalType": "address",
          "name": "from",
          "type": "address"
        },
        {
          "indexed": true,
          "internalType": "address",
          "name": "to",
          "type": "address"
        },
        {
          "indexed": false,
          "internalType": "uint256",
          "name": "value",
          "type": "uint256"
        }
      ],
      "name": "Transfer",
      "type": "event"
    },
    {
      "anonymous": false,
      "inputs": [
        {
          "indexed": false,
          "internalType": "address",
          "name": "account",
          "type": "address"
        }
      ],
      "name": "Unpaused",
      "type": "event"
    },
    {
      "inputs": [
        {
          "internalType": "address",
          "name": "owner",
          "type": "address"
        },
        {
          "internalType": "address",
          "name": "spender",
          "type": "address"
        }
      ],
      "name": "allowance",
      "outputs": [
        {
          "internalType": "uint256",
          "name": "",
          "type": "uint256"
        }
      ],
      "stateMutability": "view",
      "type": "function"
    },
    {
      "inputs": [
        {
          "internalType": "address",
          "name": "spender",
          "type": "address"
        },
        {
          "internalType": "uint256",
          "name": "amount",
          "type": "uint256"
        }
      ],
      "name": "approve",
      "outputs": [
        {
          "internalType": "bool",
          "name": "",
          "type": "bool"
        }
      ],
      "stateMutability": "nonpayable",
      "type": "function"
    },
    {
      "inputs": [
        {
          "internalType": "address",
          "name": "account",
          "type": "address"
        }
      ],
      "name": "balanceOf",
      "outputs": [
        {
          "internalType": "uint256",
          "name": "",
          "type": "uint256"
        }
      ],
      "stateMutability": "view",
      "type": "function"
    },
    {
      "inputs": [],
      "name": "decimals",
      "outputs": [
        {
          "internalType": "uint8",
          "name": "",
          "type": "uint8"
        }
      ],
      "stateMutability": "view",
      "type": "function"
    },
    {
      "inputs": [
        {
          "internalType": "address",
          "name": "spender",
          "type": "address"
        },
        {
          "internalType": "uint256",
          "name": "subtractedValue",
          "type": "uint256"
        }
      ],
      "name": "decreaseAllowance",
      "outputs": [
        {
          "internalType": "bool",
          "name": "",
          "type": "bool"
        }
      ],
      "stateMutability": "nonpayable",
      "type": "function"
    },
    {
      "inputs": [
        {
          "internalType": "address",
          "name": "spender",
          "type": "address"
        },
        {
          "internalType": "uint256",
          "name": "addedValue",
          "type": "uint256"
        }
      ],
      "name": "increaseAllowance",
      "outputs": [
        {
          "internalType": "bool",
          "name": "",
          "type": "bool"
        }
      ],
      "stateMutability": "nonpayable",
      "type": "function"
    },
    {
      "inputs": [
        {
          "internalType": "address",
          "name": "to",
          "type": "address"
        },
        {
          "internalType": "uint256",
          "name": "amount",
          "type": "uint256"
        }
      ],
      "name": "mint",
      "outputs": [],
      "stateMutability": "nonpayable",
      "type": "function"
    },
    {
      "inputs": [],
      "name": "name",
      "outputs": [
        {
          "internalType": "string",
          "name": "",
          "type": "string"
        }
      ],
      "stateMutability": "view",
      "type": "function"
    },
    {
      "inputs": [],
      "name": "numParticipants",
      "outputs": [
        {
          "internalType": "uint256",
          "name": "",
          "type": "uint256"
        }
      ],
      "stateMutability": "view",
      "type": "function"
    },
    {
      "inputs": [],
      "name": "owner",
      "outputs": [
        {
          "internalType": "address",
          "name": "",
          "type": "address"
        }
      ],
      "stateMutability": "view",
      "type": "function"
    },
    {
      "inputs": [
        {
          "internalType": "address",
          "name": "",
          "type": "address"
        }
      ],
      "name": "participants",
      "outputs": [
        {
          "internalType": "bool",
          "name": "registered",
          "type": "bool"
        }
      ],
      "stateMutability": "view",
      "type": "function"
    },
    {
      "inputs": [],
      "name": "paused",
      "outputs": [
        {
          "internalType": "bool",
          "name": "",
          "type": "bool"
        }
      ],
      "stateMutability": "view",
      "type": "function"
    },
    {
      "inputs": [],
      "name": "renounceOwnership",
      "outputs": [],
      "stateMutability": "nonpayable",
      "type": "function"
    },
    {
      "inputs": [
        {
          "internalType": "uint256",
          "name": "amount",
          "type": "uint256"
        }
      ],
      "name": "requestTokens",
      "outputs": [],
      "stateMutability": "nonpayable",
      "type": "function"
    },
    {
      "inputs": [],
      "name": "symbol",
      "outputs": [
        {
          "internalType": "string",
          "name": "",
          "type": "string"
        }
      ],
      "stateMutability": "view",
      "type": "function"
    },
    {
      "inputs": [],
      "name": "totalSupply",
      "outputs": [
        {
          "internalType": "uint256",
          "name": "",
          "type": "uint256"
        }
      ],
      "stateMutability": "view",
      "type": "function"
    },
    {
      "inputs": [
        {
          "internalType": "address",
          "name": "to",
          "type": "address"
        },
        {
          "internalType": "uint256",
          "name": "amount",
          "type": "uint256"
        }
      ],
      "name": "transfer",
      "outputs": [
        {
          "internalType": "bool",
          "name": "",
          "type": "bool"
        }
      ],
      "stateMutability": "nonpayable",
      "type": "function"
    },
    {
      "inputs": [
        {
          "internalType": "address",
          "name": "from",
          "type": "address"
        },
        {
          "internalType": "address",
          "name": "to",
          "type": "address"
        },
        {
          "internalType": "uint256",
          "name": "amount",
          "type": "uint256"
        }
      ],
      "name": "transferFrom",
      "outputs": [
        {
          "internalType": "bool",
          "name": "",
          "type": "bool"
        }
      ],
      "stateMutability": "nonpayable",
      "type": "function"
    },
    {
      "inputs": [
        {
          "internalType": "address",
          "name": "newOwner",
          "type": "address"
        }
      ],
      "name": "transferOwnership",
      "outputs": [],
      "stateMutability": "nonpayable",
      "type": "function"
    }
  ],
  "bytecode": "0x60806040523480156200001157600080fd5b506040518060400160405280600381526020017f54617000000000000000000000000000000000000000000000000000000000008152506040518060400160405280600381526020017f54415000000000000000000000000000000000000000000000000000000000008152508160039080519060200190620000969291906200038b565b508060049080519060200190620000af9291906200038b565b505050620000d2620000c66200013160201b60201c565b6200013960201b60201c565b6000600560146101000a81548160ff0219169083151502179055506200012b3362000102620001ff60201b60201c565b600a620001109190620005d5565b6127106200011f919062000626565b6200020860201b60201c565b620007fa565b600033905090565b6000600560009054906101000a900473ffffffffffffffffffffffffffffffffffffffff16905081600560006101000a81548173ffffffffffffffffffffffffffffffffffffffff021916908373ffffffffffffffffffffffffffffffffffffffff1602179055508173ffffffffffffffffffffffffffffffffffffffff168173ffffffffffffffffffffffffffffffffffffffff167f8be0079c531659141344cd1fd0a4f28419497f9722a3daafe3b4186f6b6457e060405160405180910390a35050565b60006012905090565b600073ffffffffffffffffffffffffffffffffffffffff168273ffffffffffffffffffffffffffffffffffffffff1614156200027b576040517f08c379a00000000000000000000000000000000000000000000000000000000081526004016200027290620006e8565b60405180910390fd5b6200028f600083836200038160201b60201c565b8060026000828254620002a391906200070a565b92505081905550806000808473ffffffffffffffffffffffffffffffffffffffff1673ffffffffffffffffffffffffffffffffffffffff1681526020019081526020016000206000828254620002fa91906200070a565b925050819055508173ffffffffffffffffffffffffffffffffffffffff16600073ffffffffffffffffffffffffffffffffffffffff167fddf252ad1be2c89b69c2b068fc378daa952ba7f163c4a11628f55a4df523b3ef8360405162000361919062000778565b60405180910390a36200037d600083836200038660201b60201c565b5050565b505050565b505050565b8280546200039990620007c4565b90600052602060002090601f016020900481019282620003bd576000855562000409565b82601f10620003d857805160ff191683800117855562000409565b8280016001018555821562000409579182015b8281111562000408578251825591602001919060010190620003eb565b5b5090506200041891906200041c565b5090565b5b80821115620004375760008160009055506001016200041d565b5090565b7f4e487b7100000000000000000000000000000000000000000000000000000000600052601160045260246000fd5b60008160011c9050919050565b6000808291508390505b6001851115620004c957808604811115620004a157620004a06200043b565b5b6001851615620004b15780820291505b8081029050620004c1856200046a565b945062000481565b94509492505050565b600082620004e45760019050620005b7565b81620004f45760009050620005b7565b81600181146200050d576002811462000518576200054e565b6001915050620005b7565b60ff8411156200052d576200052c6200043b565b5b8360020a9150848211156200054757620005466200043b565b5b50620005b7565b5060208310610133831016604e8410600b8410161715620005885782820a9050838111156200058257620005816200043b565b5b620005b7565b62000597848484600162000477565b92509050818404811115620005b157620005b06200043b565b5b81810290505b9392505050565b6000819050919050565b600060ff82169050919050565b6000620005e282620005be565b9150620005ef83620005c8565b92506200061e7fffffffffffffffffffffffffffffffffffffffffffffffffffffffffffffffff8484620004d2565b905092915050565b60006200063382620005be565b91506200064083620005be565b9250817fffffffffffffffffffffffffffffffffffffffffffffffffffffffffffffffff04831182151516156200067c576200067b6200043b565b5b828202905092915050565b600082825260208201905092915050565b7f45524332303a206d696e7420746f20746865207a65726f206164647265737300600082015250565b6000620006d0601f8362000687565b9150620006dd8262000698565b602082019050919050565b600060208201905081810360008301526200070381620006c1565b9050919050565b60006200071782620005be565b91506200072483620005be565b9250827fffffffffffffffffffffffffffffffffffffffffffffffffffffffffffffffff038211156200075c576200075b6200043b565b5b828201905092915050565b6200077281620005be565b82525050565b60006020820190506200078f600083018462000767565b92915050565b7f4e487b7100000000000000000000000000000000000000000000000000000000600052602260045260246000fd5b60006002820490506001821680620007dd57607f821691505b60208210811415620007f457620007f362000795565b5b50919050565b611bd6806200080a6000396000f3fe608060405234801561001057600080fd5b50600436106101215760003560e01c80635c975abb116100ad578063a457c2d711610071578063a457c2d71461030e578063a9059cbb1461033e578063dd62ed3e1461036e578063eef9c27c1461039e578063f2fde38b146103ba57610121565b80635c975abb1461027a57806370a0823114610298578063715018a6146102c85780638da5cb5b146102d257806395d89b41146102f057610121565b806323b872dd116100f457806323b872dd146101c2578063313ce567146101f2578063395093511461021057806340c10f19146102405780634e76a8461461025c57610121565b806306fdde0314610126578063095ea7b31461014457806309e69ede1461017457806318160ddd146101a4575b600080fd5b61012e6103d6565b60405161013b91906111ae565b60405180910390f35b61015e60048036038101906101599190611269565b610468565b60405161016b91906112c4565b60405180910390f35b61018e600480360381019061018991906112df565b61048b565b60405161019b91906112c4565b60405180910390f35b6101ac6104b6565b6040516101b9919061131b565b60405180910390f35b6101dc60048036038101906101d79190611336565b6104c0565b6040516101e991906112c4565b60405180910390f35b6101fa6104ef565b60405161020791906113a5565b60405180910390f35b61022a60048036038101906102259190611269565b6104f8565b60405161023791906112c4565b60405180910390f35b61025a60048036038101906102559190611269565b61052f565b005b610264610545565b604051610271919061131b565b60405180910390f35b61028261054b565b60405161028f91906112c4565b60405180910390f35b6102b260048036038101906102ad91906112df565b610562565b6040516102bf919061131b565b60405180910390f35b6102d06105aa565b005b6102da6105be565b6040516102e791906113cf565b60405180910390f35b6102f86105e8565b60405161030591906111ae565b60405180910390f35b61032860048036038101906103239190611269565b61067a565b60405161033591906112c4565b60405180910390f35b61035860048036038101906103539190611269565b6106f1565b60405161036591906112c4565b60405180910390f35b610388600480360381019061038391906113ea565b610714565b604051610395919061131b565b60405180910390f35b6103b860048036038101906103b3919061142a565b61079b565b005b6103d460048036038101906103cf91906112df565b6108b9565b005b6060600380546103e590611486565b80601f016020809104026020016040519081016040528092919081815260200182805461041190611486565b801561045e5780601f106104335761010080835404028352916020019161045e565b820191906000526020600020905b81548152906001019060200180831161044157829003601f168201915b5050505050905090565b60008061047361093d565b9050610480818585610945565b600191505092915050565b60066020528060005260406000206000915090508060000160009054906101000a900460ff16905081565b6000600254905090565b6000806104cb61093d565b90506104d8858285610b10565b6104e3858585610b9c565b60019150509392505050565b60006012905090565b60008061050361093d565b90506105248185856105158589610714565b61051f91906114e7565b610945565b600191505092915050565b610537610e1d565b6105418282610e9b565b5050565b60075481565b6000600560149054906101000a900460ff16905090565b60008060008373ffffffffffffffffffffffffffffffffffffffff1673ffffffffffffffffffffffffffffffffffffffff168152602001908152602001600020549050919050565b6105b2610e1d565b6105bc6000610ffb565b565b6000600560009054906101000a900473ffffffffffffffffffffffffffffffffffffffff16905090565b6060600480546105f790611486565b80601f016020809104026020016040519081016040528092919081815260200182805461062390611486565b80156106705780601f1061064557610100808354040283529160200191610670565b820191906000526020600020905b81548152906001019060200180831161065357829003601f168201915b5050505050905090565b60008061068561093d565b905060006106938286610714565b9050838110156106d8576040517f08c379a00000000000000000000000000000000000000000000000000000000081526004016106cf906115af565b60405180910390fd5b6106e58286868403610945565b60019250505092915050565b6000806106fc61093d565b9050610709818585610b9c565b600191505092915050565b6000600160008473ffffffffffffffffffffffffffffffffffffffff1673ffffffffffffffffffffffffffffffffffffffff16815260200190815260200160002060008373ffffffffffffffffffffffffffffffffffffffff1673ffffffffffffffffffffffffffffffffffffffff16815260200190815260200160002054905092915050565b600660003373ffffffffffffffffffffffffffffffffffffffff1673ffffffffffffffffffffffffffffffffffffffff16815260200190815260200160002060000160009054906101000a900460ff161561082b576040517f08c379a00000000000000000000000000000000000000000000000000000000081526004016108229061161b565b60405180910390fd5b6108336110c1565b61083d3382610e9b565b6000600660003373ffffffffffffffffffffffffffffffffffffffff1673ffffffffffffffffffffffffffffffffffffffff168152602001908152602001600020905060018160000160006101000a81548160ff021916908315150217905550600760008154809291906108b09061163b565b91905055505050565b6108c1610e1d565b600073ffffffffffffffffffffffffffffffffffffffff168173ffffffffffffffffffffffffffffffffffffffff161415610931576040517f08c379a0000000000000000000000000000000000000000000000000000000008152600401610928906116f6565b60405180910390fd5b61093a81610ffb565b50565b600033905090565b600073ffffffffffffffffffffffffffffffffffffffff168373ffffffffffffffffffffffffffffffffffffffff1614156109b5576040517f08c379a00000000000000000000000000000000000000000000000000000000081526004016109ac90611788565b60405180910390fd5b600073ffffffffffffffffffffffffffffffffffffffff168273ffffffffffffffffffffffffffffffffffffffff161415610a25576040517f08c379a0000000000000000000000000000000000000000000000000000000008152600401610a1c9061181a565b60405180910390fd5b80600160008573ffffffffffffffffffffffffffffffffffffffff1673ffffffffffffffffffffffffffffffffffffffff16815260200190815260200160002060008473ffffffffffffffffffffffffffffffffffffffff1673ffffffffffffffffffffffffffffffffffffffff168152602001908152602001600020819055508173ffffffffffffffffffffffffffffffffffffffff168373ffffffffffffffffffffffffffffffffffffffff167f8c5be1e5ebec7d5bd14f71427d1e84f3dd0314c0f7b2291e5b200ac8c7c3b92583604051610b03919061131b565b60405180910390a3505050565b6000610b1c8484610714565b90507fffffffffffffffffffffffffffffffffffffffffffffffffffffffffffffffff8114610b965781811015610b88576040517f08c379a0000000000000000000000000000000000000000000000000000000008152600401610b7f90611886565b60405180910390fd5b610b958484848403610945565b5b50505050565b600073ffffffffffffffffffffffffffffffffffffffff168373ffffffffffffffffffffffffffffffffffffffff161415610c0c576040517f08c379a0000000000000000000000000000000000000000000000000000000008152600401610c0390611918565b60405180910390fd5b600073ffffffffffffffffffffffffffffffffffffffff168273ffffffffffffffffffffffffffffffffffffffff161415610c7c576040517f08c379a0000000000000000000000000000000000000000000000000000000008152600401610c73906119aa565b60405180910390fd5b610c8783838361110b565b60008060008573ffffffffffffffffffffffffffffffffffffffff1673ffffffffffffffffffffffffffffffffffffffff16815260200190815260200160002054905081811015610d0d576040517f08c379a0000000000000000000000000000000000000000000000000000000008152600401610d0490611a3c565b60405180910390fd5b8181036000808673ffffffffffffffffffffffffffffffffffffffff1673ffffffffffffffffffffffffffffffffffffffff16815260200190815260200160002081905550816000808573ffffffffffffffffffffffffffffffffffffffff1673ffffffffffffffffffffffffffffffffffffffff1681526020019081526020016000206000828254610da091906114e7565b925050819055508273ffffffffffffffffffffffffffffffffffffffff168473ffffffffffffffffffffffffffffffffffffffff167fddf252ad1be2c89b69c2b068fc378daa952ba7f163c4a11628f55a4df523b3ef84604051610e04919061131b565b60405180910390a3610e17848484611110565b50505050565b610e2561093d565b73ffffffffffffffffffffffffffffffffffffffff16610e436105be565b73ffffffffffffffffffffffffffffffffffffffff1614610e99576040517f08c379a0000000000000000000000000000000000000000000000000000000008152600401610e9090611aa8565b60405180910390fd5b565b600073ffffffffffffffffffffffffffffffffffffffff168273ffffffffffffffffffffffffffffffffffffffff161415610f0b576040517f08c379a0000000000000000000000000000000000000000000000000000000008152600401610f0290611b14565b60405180910390fd5b610f176000838361110b565b8060026000828254610f2991906114e7565b92505081905550806000808473ffffffffffffffffffffffffffffffffffffffff1673ffffffffffffffffffffffffffffffffffffffff1681526020019081526020016000206000828254610f7e91906114e7565b925050819055508173ffffffffffffffffffffffffffffffffffffffff16600073ffffffffffffffffffffffffffffffffffffffff167fddf252ad1be2c89b69c2b068fc378daa952ba7f163c4a11628f55a4df523b3ef83604051610fe3919061131b565b60405180910390a3610ff760008383611110565b5050565b6000600560009054906101000a900473ffffffffffffffffffffffffffffffffffffffff16905081600560006101000a81548173ffffffffffffffffffffffffffffffffffffffff021916908373ffffffffffffffffffffffffffffffffffffffff1602179055508173ffffffffffffffffffffffffffffffffffffffff168173ffffffffffffffffffffffffffffffffffffffff167f8be0079c531659141344cd1fd0a4f28419497f9722a3daafe3b4186f6b6457e060405160405180910390a35050565b6110c961054b565b15611109576040517f08c379a000000000000000000000000000000000000000000000000000000000815260040161110090611b80565b60405180910390fd5b565b505050565b505050565b600081519050919050565b600082825260208201905092915050565b60005b8381101561114f578082015181840152602081019050611134565b8381111561115e576000848401525b50505050565b6000601f19601f8301169050919050565b600061118082611115565b61118a8185611120565b935061119a818560208601611131565b6111a381611164565b840191505092915050565b600060208201905081810360008301526111c88184611175565b905092915050565b600080fd5b600073ffffffffffffffffffffffffffffffffffffffff82169050919050565b6000611200826111d5565b9050919050565b611210816111f5565b811461121b57600080fd5b50565b60008135905061122d81611207565b92915050565b6000819050919050565b61124681611233565b811461125157600080fd5b50565b6000813590506112638161123d565b92915050565b600080604083850312156112805761127f6111d0565b5b600061128e8582860161121e565b925050602061129f85828601611254565b9150509250929050565b60008115159050919050565b6112be816112a9565b82525050565b60006020820190506112d960008301846112b5565b92915050565b6000602082840312156112f5576112f46111d0565b5b60006113038482850161121e565b91505092915050565b61131581611233565b82525050565b6000602082019050611330600083018461130c565b92915050565b60008060006060848603121561134f5761134e6111d0565b5b600061135d8682870161121e565b935050602061136e8682870161121e565b925050604061137f86828701611254565b9150509250925092565b600060ff82169050919050565b61139f81611389565b82525050565b60006020820190506113ba6000830184611396565b92915050565b6113c9816111f5565b82525050565b60006020820190506113e460008301846113c0565b92915050565b60008060408385031215611401576114006111d0565b5b600061140f8582860161121e565b92505060206114208582860161121e565b9150509250929050565b6000602082840312156114405761143f6111d0565b5b600061144e84828501611254565b91505092915050565b7f4e487b7100000000000000000000000000000000000000000000000000000000600052602260045260246000fd5b6000600282049050600182168061149e57607f821691505b602082108114156114b2576114b1611457565b5b50919050565b7f4e487b7100000000000000000000000000000000000000000000000000000000600052601160045260246000fd5b60006114f282611233565b91506114fd83611233565b9250827fffffffffffffffffffffffffffffffffffffffffffffffffffffffffffffffff03821115611532576115316114b8565b5b828201905092915050565b7f45524332303a2064656372656173656420616c6c6f77616e63652062656c6f7760008201527f207a65726f000000000000000000000000000000000000000000000000000000602082015250565b6000611599602583611120565b91506115a48261153d565b604082019050919050565b600060208201905081810360008301526115c88161158c565b9050919050565b7f4465636c696e65643a3a4f6e6c79206f6e636520706572206164647265737300600082015250565b6000611605601f83611120565b9150611610826115cf565b602082019050919050565b60006020820190508181036000830152611634816115f8565b9050919050565b600061164682611233565b91507fffffffffffffffffffffffffffffffffffffffffffffffffffffffffffffffff821415611679576116786114b8565b5b600182019050919050565b7f4f776e61626c653a206e6577206f776e657220697320746865207a65726f206160008201527f6464726573730000000000000000000000000000000000000000000000000000602082015250565b60006116e0602683611120565b91506116eb82611684565b604082019050919050565b6000602082019050818103600083015261170f816116d3565b9050919050565b7f45524332303a20617070726f76652066726f6d20746865207a65726f2061646460008201527f7265737300000000000000000000000000000000000000000000000000000000602082015250565b6000611772602483611120565b915061177d82611716565b604082019050919050565b600060208201905081810360008301526117a181611765565b9050919050565b7f45524332303a20617070726f766520746f20746865207a65726f20616464726560008201527f7373000000000000000000000000000000000000000000000000000000000000602082015250565b6000611804602283611120565b915061180f826117a8565b604082019050919050565b60006020820190508181036000830152611833816117f7565b9050919050565b7f45524332303a20696e73756666696369656e7420616c6c6f77616e6365000000600082015250565b6000611870601d83611120565b915061187b8261183a565b602082019050919050565b6000602082019050818103600083015261189f81611863565b9050919050565b7f45524332303a207472616e736665722066726f6d20746865207a65726f20616460008201527f6472657373000000000000000000000000000000000000000000000000000000602082015250565b6000611902602583611120565b915061190d826118a6565b604082019050919050565b60006020820190508181036000830152611931816118f5565b9050919050565b7f45524332303a207472616e7366657220746f20746865207a65726f206164647260008201527f6573730000000000000000000000000000000000000000000000000000000000602082015250565b6000611994602383611120565b915061199f82611938565b604082019050919050565b600060208201905081810360008301526119c381611987565b9050919050565b7f45524332303a207472616e7366657220616d6f756e742065786365656473206260008201527f616c616e63650000000000000000000000000000000000000000000000000000602082015250565b6000611a26602683611120565b9150611a31826119ca565b604082019050919050565b60006020820190508181036000830152611a5581611a19565b9050919050565b7f4f776e61626c653a2063616c6c6572206973206e6f7420746865206f776e6572600082015250565b6000611a92602083611120565b9150611a9d82611a5c565b602082019050919050565b60006020820190508181036000830152611ac181611a85565b9050919050565b7f45524332303a206d696e7420746f20746865207a65726f206164647265737300600082015250565b6000611afe601f83611120565b9150611b0982611ac8565b602082019050919050565b60006020820190508181036000830152611b2d81611af1565b9050919050565b7f5061757361626c653a2070617573656400000000000000000000000000000000600082015250565b6000611b6a601083611120565b9150611b7582611b34565b602082019050919050565b60006020820190508181036000830152611b9981611b5d565b905091905056fea264697066735822122095a531a1890e067350be91050da3a6f1dd664b616c71dfc79db2a518e5cc5e3664736f6c63430008090033",
  "linkReferences": {},
  "deployedLinkReferences": {}
}